:020000020000FC
:1080000000C00091780005FD6AC0F092800608E18A
:10801000009393060FEF0A950023E9F70091880675
:1080200003FFECC0E0E0F0E0079116910F3F19F478
:108030001F3F09F4E3C053C03091CF0137FDFCCF9F
:108040003BB72BBFF8012091CA0113E21093CA017C
:108050000A01E8952093CA013BBF08953BB72BBFA7
:10806000F8012091CA014093CA013DE930933400E0
:10807000E8952093CA013BBF089520E006D0E9F7B8
:108080000895259102D0E9F708952D9301501040ED
:10809000202F212B089584E59FE8FC010591149180
:1080A000FC013296A591B491FC013496259134914E
:1080B000422F432B19F0F901E4DF01C0DEDF069601
:1080C0001FE88036910748F3089501E70DBF00E2ED
:1080D0000EBFC4E2DAE20E944B400E942D41F092B2
:1080E000930600910020109101200A3A154551F0A5
:1080F0002227209300092093010921E020936206A2
:108100000C940000F0920020F092012000E2009315
:108110007800EECFDD84CC84BB84AA8499848884E3
:108120007F806E805D804C80BB81AA81998188812F
:10813000F0E0EC0FFD1FEF010895DA92CA92BA92B7
:10814000AA929A928A927A926A925A924A92BA938E
:10815000AA939A938A930895BD01D801F90104C0A6
:1081600021912D9341505040242F252BC9F7DB013D
:108170000895AF93BF93D80101900D9241505040A4
:10818000D9F7BF91AF9108954091CA01E22FF32F23
:108190000093CA0104914093CA01089540E04BBF87
:1081A000F80158ED54BF20830895169507954A9518
:0E81B000E2F70895000F111F4A95E2F70895B7
:1081F4000C947E450C94AF4566CFB90198018B0170
:10820400F8C061E008C1B90198018B0157C087C06B
:1082140062E770E2260F371F0C94AC4068EE70E200
:10822400F9CF0091CF0107FDFCCF40E200D552D138
:108234000FEFC7D0A6D000E335D024C3F8940AEAE0
:1082440015E5E0E0F0E200831183209179002160DC
:1082540009E785D1FFCF27E402EA81D153D178948D
:1082640000E00093000901E00093610603E100933C
:1082740001090FEFE6E2F9E0008301831FE7E8E27A
:108284000083118306E000930009D8D311D4FFCFF3
:108294000091CF0107FDFCCF089521E00BEC11E024
:1082A4000C94CE408A938091CA010093CA0121E0C4
:1082B4000BEC11E0F5DF8093CA017BC455D0D801E3
:1082C4002901CA015ED0ECECF1E000810860008372
:1082D400AC01B05F9D0182019FDFECECF1E0008115
:1082E400077F0083E6E00C9492405CD0C801A22F83
:1082F400B091CA013BD045D00BD09093C10180937B
:10830400C001A093C40105E339D0B093CA0154C39A
:1083140003E30093CA0100E00093C201089524D04E
:10832400C801D9012A010DC08D012CD045E08C0172
:108334000E94D74039D08096909600EE400E0FEF01
:10834400501E042D052979F0082F0F7129F400E23D
:10835400401600E0500640F72D918C01C6DF0196CF
:108364000FEF400EEDCFBECF0C94A5400AD0009184
:10837400CF0101FF02C006E301D008950093CA01B2
:108384008CCF86CF0FD0D8018091CA012DD0009315
:10839400C0011D911093C40103950032C0F3809372
:1083A400CA010AC30C94A7408A93802FEADF00E233
:1083B400809FB1DF1092C1010092C00105E372DF1A
:1083C400F8C39A938A93802F9091CA01CFDF0CD07F
:1083D4000093C0018093C40103950032C8F39093C5
:1083E400CA0189919991089553DF92DF0093C101E5
:1083F4000895BADFD901CA012801C3DF08C0F20118
:1084040004910D9301E0400E00E0501E0197082FE7
:10841400092BA9F767CF0E949D40229739015A0181
:10842400D62E4801512E442404C0ABDF45E28C0112
:1084340051D00A2D0B29D9F1CC24A3DF80E8DD200B
:1084440059F0F20105911491088319830F3F1F4FCE
:1084540031F0CC24C39403C00FEF088309830A2DA1
:108464000B2989F08414950431F42AD0088323D08D
:108474000A2D0B2941F0F20131968E169F0619F44C
:108484001FD0098318D048815981820120E030E04F
:108494000E941C4002E0400E00E0501E8A9579F6CE
:1084A400C2019A95CC2009F66CDF44E2C0CF229633
:1084B400EEE00C948A4001E0600E00E0701E089526
:1084C4000FEFA00EB01E01E0800E00E0901EF3013D
:1084D4000081089520E030E00C942E400FBF0895F1
:1084E4004FB7F8941095F0E0E02FE059FF4F00816A
:1084F40001230083042FF2CFF1CF202F30E002E0DC
:108504000C94C44024E001E42AD00DE1F6DF00938A
:1085140062000CE1F2DF009363000FB7F894E0E52A
:10852400F0E0108112601083E7DFE1E5F0E0008104
:1085340001FFFDCF21E000E410E0B2DEE6E5F0E06B
:108544000081097F008300E807870BEB008B008123
:1085540004600083E0E6008101600083089510E078
:108564009FCEE0EFF0E200E0028301E010E0008340
:108574001183089500910C210F770093C30408958B
:10858400CAD1208D018D0A9529F00A95A1F00A958A
:10859400B9F01DC0E0ECF0E2228930E072968F0160
:1085A40026D1B9D19AD320A131A10217130710F40F
:1085B40000A311A367C1E0ECF0E222813381EFCF85
:1085C400222329F424E030E004EE10E2E9CFE4C0F1
:1085D400A5D00F7161F59DD007FF14C0112329F0B8
:1085E400165041F0125041F022C022E030E000EF7A
:1085F40010E206C0C5DF1CC021E030E002EF10E24B
:10860400F6D013C0155019F0145031F010C00CEB13
:1086140012E49296EDD009C0A4DF58960D91009310
:10862400F220002311F024D003C001E001C000E0D7
:10863400F2C171D100E000A301A302A303A304A328
:1086440005A3068907FF03C048D3012B81F00091DD
:108654000A21007619F4BCDF002341F400910A21B9
:108664000F71013021F420D0002309F00BC194C014
:1086740000E00093EE204CD0009190000093E8209D
:10868400009191000093E920009192000093EA2068
:10869400009193000093EB200091D00101FB16F0B0
:1086A40001E001C000E0ECC039D00076003271F581
:1086B40030D007FF10C0125041F01A9529F526E07A
:1086C40030E09E968D0193D01DC0ACEEB0E2B4D3E1
:1086D400D9F009951CC01A9521F01350A9F418D0AB
:1086E40011C00091EE20002321F000E211E49296E3
:1086F40008C020E430E003E311E279D001EA13E496
:10870400949676D001E003C00FE069D000E083C105
:108714000BC010910B210C915697089584D0AAE0B8
:10872400B1E200910A210895F6D000E006A702E024
:1087340002AB00E004A305A302A303A30895E8DFAA
:1087440000E0E8EEF0E204830583E3E3F1E2308144
:108754002181203001E0300709F420C0203003E0FB
:10876400300709F448C02130300709F469C02030CB
:1087740004E0300731F455DD002300E009F40895E6
:108784007FC02330300721F401E00093EE200895E8
:108794002330364009F463C000E0089544D0A0E2D9
:1087A400B1E20091EF2010913021012311F087D024
:1087B40015C02D913C919D972030304019F403E071
:1087C4000ED002C033D011F400E008C020E038E03D
:1087D4000CD001EF14E494960BD001E01CC100937B
:1087E40022210AE000932621089504E711E27EC1C4
:1087F4000D931C93089517D019D019F029D019F4AA
:108804001AD000E00FC0A8EEB0E20091EF2014AD42
:10881400012319F001E614E402C000E914E41496FB
:10882400E7DF01E0F8C0BA93AA93089505E311E2E3
:108834004DD00023089503E006A70AE002AB089593
:10884400F5DF19F005D011F4F6DFA6CF74D01AC005
:10885400E4EFF0E222A533A5203030400895E3E3AD
:10886400F1E20281002359F40381013118F008E098
:10887400B6DF92CF09D000E04ED004AB05AB02C006
:108884000093EF2001E00895033041F0023031F00D
:10889400043021F0053011F011E001C010E0109314
:1088A400302112E0019FF001E356FF4D6081F18118
:1088B4000AE111E2E62F48E050E00C94B94003E0ED
:1088C4000093222102E00093262166CF7B2F2A2FDA
:1088D400D8015C91F8010181402F1DD004AB55AB48
:1088E40012961D9130E00C9106A017A020A431A48B
:1088F400001511053205330520F008E09DDF00E086
:1089040007C0041B150B0F5F1F4F06AB17AB01E02D
:10891400A22FB72F0895E4EFF0E2089576D046A988
:1089240057A94DD09A9673D29B970995FD0126A914
:1089340037A95BDF6FC036DDA4EFB0E2FD0106A905
:1089440017A9012B39F400E018EF06AB17AB80E050
:1089540098E010C0FD0106A917A9202F212B61F171
:10896400183010F4C80102C080E098E0081B190B0D
:1089740006AB17ABAC0123D062A5F3A5E62F09958E
:1089840004E711E207C0FD0124A935A92F5F3F4F79
:1089940024AB35AB9C010197232BE1F2F801219123
:1089A4008F012F3F81F305E00093222106EE14E4AA
:1089B400E8EEF0E204831583E4E00C94944024A9E7
:1089C40035A904E711E20895A6DF24A905A90093B7
:1089D40074212093752122E030E007DF53CF15D0B6
:1089E40004A915A946A957A9202F2F73622F70E057
:1089F40024E731E2260F371F9C9609D29D970995EB
:108A040000E0FD0104A305A305C00DDFA4EFB0E25F
:108A1400FD01089501E0A991B99108955FCD6DCD4F
:108A24000AE107D00093FA040BE103D00093FB049E
:108A34000895F5DF0F3F09F40FE108950E94A8405F
:108A440000E00093600010E44BDD23E004E487DDE4
:108A540069D20064008301E000936000AFB7F8942A
:108A6400E6D028E0029FF001EC50FF4D15830395FA
:108A74000230C0F3D5DF0091C0040093C00452D289
:108A84000068008300810061008384EF90E2049613
:108A9400E6EC80839183E0EC23D10FEF0583E8ECCF
:108AA4000081016000830A2FB9DFE3E00C94954054
:108AB4000FB7F89410E41093CA0410E21093CA0498
:108AC400E1ECF4E0108111601083E9EC1081126094
:108AD4001083E8EC108110641083E9EC10811160BC
:108AE4001083E8EC10811068108398CF14DF068F90
:108AF400178F20A331A308955ED00091CB0407FF04
:108B040002C000E827C0F4D1002329F5EBEC0BD216
:108B140004FF17C000E103D224DD00E00093C30486
:108B240020E430E010E05AD020E430E010E000E827
:108B340055D004E719E20093FC201093FD201CD1CA
:108B44000AC0008106FF02C000E404C0008105FFE2
:108B540002C000E2E4D11ED018952DD097D101FDBA
:108B640002C084D1B1F402E00093CC040091C504A6
:108B740033D0F801008105FF06C02ED020E2F801B1
:108B84002693FBD006C000E828D020E2F801269303
:108B9400B0D0E1CF8FBF09911991299139914991B1
:108BA4005991699179910990199029903990E99195
:108BB400F991899108958A93FA93EA933A922A92C1
:108BC4001A920A927A936A935A934A933A932A93FB
:108BD4001A930A938FB7089500E01AC08A9320511C
:108BE400304041F02051304039F02052304031F0D3
:108BF40080E005C081E003C082E001C083E0EDDFD6
:108C040020E0F801218326E0208380648183D1CF92
:108C140068EF70E2202F2F70220F000F08D0001F82
:108C2400020F43E00E94DC40060F171F089500E086
:108C340010E008959D01E8EC76D10F7D008300815A
:108C44000F7D008341D102E00593A2E0B1E2EFDFA2
:108C54000D930C93539600E2069300E406933ED1E1
:108C6400069300E406931D931D931D931C9315977F
:108C74001D931C9311AFD9010895E7D0002331F05F
:108C8400033011F0043009F42CD176D044DE06818F
:108C94001781083050E01040F1F448E024E739E24D
:108CA4000AE011E2B9DAE8ECF4E01AD019D0C1DC38
:108CB400002309F4EEC02FDE068907FF04C013D099
:108CC40002E005AF16C009D0012B09F405C00BD092
:108CD40001E005AFFFD00895E8C0048D158D089517
:108CE400008100623ACC00E000AF01AF02AF03AFF5
:108CF4000895A7D0033011F43ED03CC099D080A190
:108D040091A1801B910B282F292BD1F488D0E5DF6A
:108D14000217130719F006AD002311F0D8D02AC0AA
:108D240004A115A120E00030120791F0F801099583
:108D3400002371F000E0FD0102AF03AF80A191A117
:108D4400803400E0900720F080E490E006AF03C098
:108D540001E000933221FD0186879787068D178DE8
:108D640022AD33AD020F131F008B118B890152D03A
:108D7400ABD0B1D021CEB5D05DCF63D0043011F4E7
:108D8400FADF44C0FD018681978162AD73AD20A1F5
:108D940031A18B01080F191F2017310718F4C901DD
:108DA400861B970BAC0124E739E2068D178D060F5D
:108DB400171F32DA3DD02ED08034904031F433D0B6
:108DC400448D558D2417350750F000A311A39496B4
:108DD40033D019F00995002389F067D017C020A17A
:108DE40031A12017310789F4949611D0959700E0AA
:108DF400E030F00719F00995002311F44AD006C0B9
:108E040017D00DD000E002AF03AF64D0D5CDED9103
:108E1400FC910895080F191F02AF13AF089503D0F2
:108E240020AF31AF089520AD31AD200F311F08952B
:108E3400FD0102AD13AD0895EADF00E0E030F00774
:108E440008950E94A740A4EFB0E200913121089553
:108E54001DD001FD0AC00AD009F00895F6DF0130E3
:108E640009F43ACF043009F417D008955ED0E1CC68
:108E74000DD001FD0AC0FADF09F00895E6DF0230E3
:108E840009F425C0033009F407D008950091CC04F7
:108E9400089505E000933121E1E0F1E204E0059357
:108EA400E9EFF0E204E0059308951B2F2A2F33DD48
:108EB40003E0DF01DD960C9300E00687078704D00A
:108EC4000AD0A22FB12F0895E0E0F1E2089504E062
:108ED4000093312103D002E006930895E8EFF0E215
:108EE4000895A1DCA6E1B1E2A7DF09F0099593CDCD
:108EF400EBEC19D002FF08C0F093CA0400910021E2
:108F040006FF0BC0A5DF09C0008101FF07C002E016
:108F140006D00091F82006FDABDFB4CC3DCC009325
:108F2400CA040895E0ECF4E0D3CAB0DF00FF34CC07
:108F340001E00093CC04D2DF00E80693C5DF00E82B
:108F4400069301E0ECDFCADF00E1069396DE9ACCDB
:108F5400CC08E820000076007220608F0400000036
:108F6400800000FF40034100040000054109410363
:108F74000000000A4100000400000010410000004D
:108F84000000000000000075207D209520952085BC
:108F9400208D20952095209520952095209520952D
:108FA40020952095209520952000090212000101AA
:108FB40000C0320904000000FF000000120100029A
:108FC40000000040EB03E42F040000000001040350
:028FD40009048E
:040000030000800079
:00000001FF
