:10000000C9C10000E4C10000E2C10000E0C100007D
:10001000DEC10000DCC1000055C7000077C700004A
:1000200099C70000BBC700000C948D080C94A6086B
:10003000CEC10000CCC100000C941D090C944609EF
:100040000C946F090C9498090C94C1090C94EA095A
:100050000C94130A0C943C0A0C94650A0C948E0AB6
:10006000B6C10000B4C10000B2C10000B0C10000C0
:10007000AEC10000ACC10000AAC10000A8C10000D0
:10008000A6C10000A4C10000A2C10000A0C10000E0
:100090009EC100009CC100009AC1000098C10000F0
:1000A00096C1000094C1000092C1000090C1000000
:1000B0008EC100008CC100008AC100000C94510C5C
:1000C0000C947A0C0C94A30C0C94CC0C0C94F50CA2
:1000D0000C941E0D7CC100007AC1000078C10000A4
:1000E00076C1000074C1000072C1000070C1000040
:1000F0006EC100006CC100006AC1000068C1000050
:100100000C94111464C1000062C1000060C10000C1
:100110005EC100005CC100005AC10000C6C40000FE
:10012000F2C400001EC500004AC5000050C1000016
:100130004EC100000C94B70A0C94E00A0C94090B11
:100140000C94320B0C945B0B0C94840B0C94AD0B45
:100150000C94D60B0C94FF0B0C94280C38C10000A7
:1001600036C1000034C1000032C1000030C10000BF
:100170002EC100002CC100002AC1000028C10000CF
:1001800026C1000024C1000022C1000020C10000DF
:100190001EC100001CC100001AC1000018C10000EF
:1001A00016C1000014C1000012C1000010C10000FF
:1001B0000EC100000CC100000AC1000008C100000F
:1001C00006C1000004C1000002C1000000C100001F
:1001D000FEC00000FCC00000FAC00000F8C0000033
:1001E000F6C00000F4C00000F2C00000F0C0000043
:1001F000EEC000000C94651B0C94191CF614FD1441
:1002000004150B15DE15DE15DE15DE15DE15DE1503
:10021000DE15DE15DE15DE15DE15DE1512151915D7
:10022000201527152E153515DE15DE15DE15DE1504
:10023000DE15DE15DE15DE15DE15DE153C15431563
:10024000DE15DE15DE15DE15DE15DE15DE15DE1516
:10025000DE15DE15DE15DE15DE15DE154A15511527
:1002600058155F156615831586158A158E15E415C4
:10027000E415E415E415E415E415E415E415E415B6
:10028000E415E415E415921596159A159E15A21518
:10029000A615E415E415E415E415E415E415E415D4
:1002A000E415E415E415AA15AE15E415E415E415F6
:1002B000E415E415E415E415E415E415E415E41576
:1002C000E415E415E415B215B615BA15BE15C21538
:1002D0006617541757175A175D17601763170000F2
:1002E0003C027804B306EE08280B610D9A0FD11179
:1002F00006143A166D189D1ACB1CF81E21214823AE
:100300006D258E27AD29C82BDF2DF42F0432103434
:1003100019361D381D3A183C0F3E0140ED41D543BA
:10032000B74594476C493D4B094DCF4E8E504852CE
:10033000FB53A7554D57EB58835A145C9E5D205FC5
:100340009B600F627A63DF643B668F67DB681F6ABE
:100350005B6B8E6CB96DDB6EF56F06710E720D7393
:100360000374F074D475AF76817749780879BD79D4
:10037000697A0C7BA57B347CB97C357DA77D0F7EAB
:100380006E7EC27E0D7F4E7F857FB17FD47FED7FF5
:10039000FC7FFF7F11241FBECFEFCDBFDFE2DEBFAA
:1003A00012E2A0E0B0E2E4E7FDE402C005900D92A5
:1003B000AC3BB107D9F729E2ACEBB2E201C01D9228
:1003C000A53AB207E1F70E94E8150C94B82618CEBA
:1003D000FF920F931F93CF93DF93EC018B01009754
:1003E00009F458C1803C910521F460E180E0BDD260
:1003F00051C1811524E0920721F464E080E0B5D278
:1004000049C1C03881E0D80721F462E080E0ADD274
:1004100041C1C115E1E0DE0721F461E080E0A5D231
:1004200039C1C038F3E0DF0721F461E081E09DD2FB
:1004300031C1C11522E0D20721F462E081E095D2FA
:1004400029C1C03283E0D80721F464E082E08DD274
:1004500021C1C115E8E0DE0721F461E083E085D227
:1004600019C1C115F9E0DF0721F461E084E07DD214
:1004700011C1C1152AE0D20721F461E085E075D2EF
:1004800009C1C03488E0D80721F462E083E06DD26E
:1004900001C1C034E9E0DE0721F462E084E065D206
:1004A000F9C0C039F8E0DF0721F464E083E05DD2F1
:1004B000F1C0C03929E0D20721F464E084E055D2CC
:1004C000E9C0C0398AE0D80721F464E085E04DD264
:1004D000E1C0C03CE8E0DE0721F468E083E045D2FB
:1004E000D9C0C03CF9E0DF0721F468E084E03DD2E8
:1004F000D1C0C03A28E0D20759F460E183E035D298
:10050000E0EAF8E084818F7E848380EA98E038C056
:10051000C03A89E0D80721F460E184E026D2BAC06D
:10052000C03AEAE0DE0721F460E185E01ED2B2C005
:10053000C03BF8E0DF0721F460E283E016D2AAC0F6
:10054000C03B29E0D20721F460E284E00ED2A2C0D1
:10055000C03884E0D80721F460E483E006D29AC072
:10056000C03AE4E0DE0721F460E485E0FED192C009
:100570008C818F7E8C83CE01C03AF8E0DF0751F486
:10058000E0E4F6E0268524FD8AC00F2EF1E1FF2E7F
:10059000F02D04C0803B28E0920799F0803AE9E012
:1005A0009E0751F4E0E6F6E0868584FD7DC00F2EBF
:1005B000F9E1FF2EF02D1FC0803BF9E09F0791F07D
:1005C00004C00F2EF5E1FF2EF02D803A9A4099F4E9
:1005D000E0E8F6E0868584FF0AC00F2EF5E2FF2EE4
:1005E000F02D09C00F2EFDE1FF2EF02D04C00F2EBF
:1005F000F1E2FF2EF02DAF2DA695A695A69580E2EF
:10060000A89FD0011124BA5F2F2D277081E090E0C0
:10061000022E02C0880F991F0A94E2F711968C935C
:100620001197FD017096E20FF11D9FB7F89420819C
:10063000277020832081286F20839FBF15968C937D
:100640008D81806C8D83F80184818D7F813021F4D0
:100650008D8182608D8303C08D818D7F8D83F801B4
:100660008581882321F08D8184608D8303C08D81F5
:100670008B7F8D83F801408151816281738100E01D
:1006800018E428EE31E0CE010E94C50D8C8188600F
:100690008C830FC08C818F7E8C83CE017BCF0F2EFD
:1006A000F5E1FF2EF02D7ACF0F2EFDE1FF2EF02D7C
:1006B000A2CFDF91CF911F910F91FF900895CF931B
:1006C000DF93CDB7DEB72B97CDBFDEBFF2D0109250
:1006D0008F291092902910929129109292291092AC
:1006E000932981E08093942990E2E0E0F6E0918301
:1006F000E0E6F6E094E0918392E0918381838FB706
:10070000F894E2E7F6E0908197709083908190648E
:1007100090838FBF8FB7F894E1E7F6E090819770F0
:1007200090839081906490838FBF8FB7F894E0E6B8
:10073000F6E090899770908B90899064908B8FBF32
:1007400080E099E00E94470DE0E0F9E08181887F38
:10075000836081838FEF90E086A397A32081207F21
:100760002160208380A791A782A793A781818063BE
:10077000818388E0E0E6F6E082838FB7F894E3E7D0
:10078000F6E0908197709083908190838FBF8FB7B0
:10079000F8949081987F9083908190838FBF88E0B8
:1007A00080936A0660E070E280EA98E011DE8FB71D
:1007B000F894E3E5F6E09081977090839081986FCC
:1007C00090838FBF88E0E0E4F6E08183BE016F5F35
:1007D0007F4F80E092E063D2AE01485F5F4F61E0FF
:1007E00080E092E0B8D29A818B818F7820EC2C83C4
:1007F0009978986F9A8396E09D8383608B83BE017E
:100800006F5F7F4F80E092E008D281E0888788E5C3
:100810008987AE01485F5F4F61E080E092E062D27D
:1008200083E1888783E38987AE01485F5F4F62E099
:1008300080E092E057D28FE188878DE08987AE0112
:10084000485F5F4F64E080E092E04CD218861986E2
:100850008A858C7F81608A87AE01485F5F4F68E040
:1008600080E092E03FD28FB7F894E3E9F6E0908120
:10087000977090839081986590838FBF34D487E080
:10088000E0EAF0E0828380E499E00E94470DE0E432
:10089000F9E086818C7F868386818260868384EFFF
:1008A00091E086A397A32B96CDBFDEBFDF91CF91BA
:1008B0000895CF93DF9300D000D0CDB7DEB78FEF90
:1008C0008093700080937100809372008093730016
:1008D0008093740080937500809376006CE170E0E3
:1008E00082E00E94E9248A836DE170E082E00E9448
:1008F000E924898389819A81019621F480E493E235
:1009000089839A8389819A818B839C83E0E6F0E0D6
:1009100082838C818383E0E5F0E0818184FD0BC0DC
:100920008FB7F89490E195839081906190838FBF09
:10093000818184FFFDCF64E080E490E00E94CC24BC
:100940008FB7F894E0E5F0E09081946090838FBFDA
:10095000818182FFFDCF8DE0E0E4F0E08383249687
:10096000CDBFDEBFDF91CF9108959FB7F894E82FF8
:10097000F0E0E059FF4F60958081682360839FBF5E
:1009800008959FB7F894E82FF0E0E059FF4F808179
:10099000682B60839FBF0895863011F468E101C021
:1009A00060E0E0E5F0E0818181FD24C08FB7F8943C
:1009B0009081926090838FBF818181FFFDCF8FB73F
:1009C000F894A0E5B0E016969C911697997F16963C
:1009D0009C931697E0E6F0E090E895839BEB968376
:1009E00016969C911697946016969C9390819160B0
:1009F00090838FBF636084E490E00E94CC2460E425
:100A000080E0B3CF08952FB7F8948115924021F478
:100A100060939525709396252FBF08958115924078
:100A200059F48091BC2291E0980F9093BC228111DF
:100A300003C062E081E099CF08958115924051F49E
:100A40008091BC2281508093BC22811103C062E05E
:100A500081E097CF08951F93CF93DF93EC011FB7E9
:100A6000F894DCDF8881816088831FBF8FB7F8949A
:100A7000E0E9F9E290819F5F90838FBFDF91CF9192
:100A80001F910895CF93CFB7F894FC0120812E7F5A
:100A90002083D3DFCFBF8FB7F894E0E9F9E29081EC
:100AA000915090838FBFCF9108951F920F920FB6F0
:100AB0000F9211242F933F934F935F936F937F93E4
:100AC0008F939F93AF93BF93EF93FF93E0E0F2E098
:100AD00044A155A1E0919525F091962561E080E033
:100AE00092E00995FF91EF91BF91AF919F918F9106
:100AF0007F916F915F914F913F912F910F900FBE1A
:100B00000F901F9018951F920F920FB60F921124FD
:100B10002F933F934F935F936F937F938F939F9305
:100B2000AF93BF93EF93FF93E8E2F2E044815581E6
:100B3000E0919525F091962562E080E092E009959C
:100B4000FF91EF91BF91AF919F918F917F916F91A5
:100B50005F914F913F912F910F900FBE0F901F907B
:100B600018951F920F920FB60F9211242F933F9357
:100B70004F935F936F937F938F939F93AF93BF93A5
:100B8000EF93FF93E0E3F2E044815581E0919525F6
:100B9000F091962564E080E092E00995FF91EF9155
:100BA000BF91AF919F918F917F916F915F914F9185
:100BB0003F912F910F900FBE0F901F9018951F928D
:100BC0000F920FB60F9211242F933F934F935F9381
:100BD0006F937F938F939F93AF93BF93EF93FF9305
:100BE000E8E3F2E044815581E0919525F091962566
:100BF00068E080E092E00995FF91EF91BF91AF919D
:100C00009F918F917F916F915F914F913F912F9124
:100C10000F900FBE0F901F901895DF92EF92FF92EA
:100C20000F931F93CF93DF93EC018B01C11582E0EB
:100C3000D80769F561E270E082E00E94E924E82EBD
:100C4000F12C60E270E082E00E94E924FE2CEE24A8
:100C5000E82ADFB6F894CE01E1DE288182E08883BD
:100C6000EC86FD86F80185819681888F998F828137
:100C70008A8384818C8383818B8381818983822F82
:100C800081709081892B8883CE01D7DEDFBEDF9112
:100C9000CF911F910F91FF90EF90DF900895FF92F9
:100CA0000F931F93CF93DF93EC018B01FFB6F89462
:100CB000B5DE8881807CF8018083888D998D85835D
:100CC00096838A8182838C8184838B8183838981CB
:100CD0008183CE01B2DEFFBEDF91CF911F910F91D4
:100CE000FF900895CF92DF92EF92FF920F931F93A0
:100CF000CF93DF937C01D62E8A01862F837029F44F
:100D0000962F9695969582E002C0962F80E090FFF0
:100D10008F5FE701A09698E0899FC00DD11D112437
:100D2000CFB6F894C7017ADEF8018081888382818A
:100D30008A8381818983D0FE02C083818E83C7012B
:100D40007CDECFBEDF91CF911F910F91FF90EF908E
:100D5000DF90CF900895CF92DF92EF92FF920F93A2
:100D60001F93CF93DF937C01D62EEA01862F8370E9
:100D700029F4962F9695969582E002C0962F80E0F2
:100D800090FF8F5F8701005E1F4F98E0899F000DE5
:100D9000111D1124CFB6F894C70140DEF8018081FF
:100DA000888382818A8381818983D0FE02C0868183
:100DB0008B83C70142DECFBEDF91CF911F910F9190
:100DC000FF90EF90DF90CF900895CF93DF93282F7F
:100DD00030E0F9017196E295F295F07FFE27E07F11
:100DE000FE27A0E0B1E014969C9114971396AC9165
:100DF000A9014C5F5F4F61E070E0EB01042E02C07F
:100E0000CC0FDD1F0A94E2F7082E02C0660F771F91
:100E10000A94E2F76C2BA623B0E0ED01042E02C089
:100E2000D595C7950A94E2F7C0FD1BC0082E02C0F5
:100E3000B595A7950A94E2F7A0FD15C0692370E067
:100E4000DB0102C0B595A7954A95E2F7A0FD0DC05C
:100E5000AB0102C0559547958A95E2F7CA018170AA
:100E600005C084E003C083E001C082E0918190630B
:100E70009183F901EE0FFF1FE956FA4D0190F081C1
:100E8000E02D309709F00995DF91CF91089561E049
:100E900080E06BDD8FB7F894E0E9F9E290819F5F25
:100EA00090838FBFE0E0F1E080E4808380E880837E
:100EB0000895E82FF0E0EE0FFF1FE956FA4D60832A
:100EC000718308951F920F920FB60F9211242F93E2
:100ED0003F934F935F936F937F938F939F93AF93C2
:100EE000BF93EF93FF9380E070DFFF91EF91BF918D
:100EF000AF919F918F917F916F915F914F913F91B2
:100F00002F910F900FBE0F901F9018951F920F9268
:100F10000FB60F9211242F933F934F935F936F93CC
:100F20007F938F939F93AF93BF93EF93FF9381E052
:100F30004CDFFF91EF91BF91AF919F918F917F9186
:100F40006F915F914F913F912F910F900FBE0F9036
:100F50001F9018951F920F920FB60F9211242F9386
:100F60003F934F935F936F937F938F939F93AF9331
:100F7000BF93EF93FF9382E028DFFF91EF91BF9142
:100F8000AF919F918F917F916F915F914F913F9121
:100F90002F910F900FBE0F901F9018951F920F92D8
:100FA0000FB60F9211242F933F934F935F936F933C
:100FB0007F938F939F93AF93BF93EF93FF9383E0C0
:100FC00004DFFF91EF91BF91AF919F918F917F913E
:100FD0006F915F914F913F912F910F900FBE0F90A6
:100FE0001F901895DB01E82FF0E07196E295F295DD
:100FF000F07FFE27E07FFE272FB7F89419968C919B
:10100000199784871A968C911A9785871686179652
:101010008C911797808718968C91189781871286E4
:1010200012968C911297828313968C9113978383D7
:1010300014968D919C9115978483958316968C9127
:101040001697868311968C91119781838C918F7757
:1010500080832FBF08950F931F93E0E0F4E0818118
:1010600080FDFDCF2FB7F89440919F255091A0258A
:10107000E0E0F4E080859185009729F4338130FF2A
:1010800002C04F5F5F4F2FBF60E070E0BA0155278D
:101090004427A0E0B0E08A019B01082B192B2A2BE2
:1010A0003B2BC901B8011F910F910895E0E0F4E0D6
:1010B00021E02283648775876093A3257093A4251C
:1010C0008093A1259093A225818180FDFDCFE0E052
:1010D000F4E082E0838385E0828308958093A525F0
:1010E0009093A625089564E080E03FDCE0E0F4E022
:1010F0008FEF9FEF82879387108611868FB7F894C2
:10110000E2E9F9E290819F5F90838FBFE0E0F4E035
:1011100081E0828384E0808308951F920F920FB64E
:101120000F9211248F939F93EF93FF93EFE9F5E2D2
:1011300080819181019680839183FF91EF919F91AE
:101140008F910F900FBE0F901F9018951F920F92C6
:101150000FB60F921124CF92DF92EF92FF920F936E
:101160001F932F933F934F935F936F937F938F932F
:101170009F93AF93BF93EF93FF9340919F2550911F
:10118000A0258091A1259091A22548175907F0F13B
:1011900081E0E0E0F4E08283E091A525F091A625CE
:1011A0003097A1F1A0E0B4E018968D919C91199729
:1011B00060E070E0BA0155274427A0E0B0E08A0162
:1011C0009B01082B192B2A2B3B2BC901B80100913D
:1011D000A1251091A22520E030E0980111270027D9
:1011E000C090A325D090A425E12CF12C0C291D2919
:1011F0002E293F29061717072807390730F0C9019C
:10120000B8016F5F7F4F8F4F9F4F0995FF91EF910F
:10121000BF91AF919F918F917F916F915F914F910E
:101220003F912F911F910F91FF90EF90DF90CF9002
:101230000F900FBE0F901F9018951F920F920FB630
:101240000F9211242F933F934F935F936F937F934C
:101250008F939F93AF93BF93EF93FF93E091EF2210
:10126000F091F022309709F00995FF91EF91BF912D
:10127000AF919F918F917F916F915F914F913F912E
:101280002F910F900FBE0F901F9018951F920F92E5
:101290000FB60F9211242F933F934F935F936F9349
:1012A0007F938F939F93AF93BF93EF93FF93E091BF
:1012B000ED22F091EE22309709F00995FF91EF9120
:1012C000BF91AF919F918F917F916F915F914F915E
:1012D0003F912F910F900FBE0F901F9018951F9266
:1012E0000F920FB60F9211242F933F934F935F935A
:1012F0006F937F938F939F93AF93BF93EF93FF93DE
:10130000E091EB22F091EC22309709F00995FF91E2
:10131000EF91BF91AF919F918F917F916F915F916D
:101320004F913F912F910F900FBE0F901F901895E6
:101330001F920F920FB60F9211242F933F934F934A
:101340005F936F937F938F939F93AF93BF93EF932D
:10135000FF93E091E922F091EA22309709F0099594
:10136000FF91EF91BF91AF919F918F917F916F917D
:101370005F914F913F912F910F900FBE0F901F9053
:1013800018951F920F920FB60F9211242F933F932F
:101390004F935F936F937F938F939F93AF93BF937D
:1013A000EF93FF93E091E722F091E822309709F064
:1013B0000995FF91EF91BF91AF919F918F917F918F
:1013C0006F915F914F913F912F910F900FBE0F90B2
:1013D0001F9018951F920F920FB60F9211242F9302
:1013E0003F934F935F936F937F938F939F93AF93AD
:1013F000BF93EF93FF93E091E522F091E6223097BF
:1014000009F00995FF91EF91BF91AF919F918F9155
:101410007F916F915F914F913F912F910F900FBEF0
:101420000F901F9018951F920F920FB60F921124D4
:101430002F933F934F935F936F937F938F939F93DC
:10144000AF93BF93EF93FF93E091E322F091E422F7
:10145000309709F00995FF91EF91BF91AF919F915E
:101460008F917F916F915F914F913F912F910F904D
:101470000FBE0F901F9018951F920F920FB60F92EC
:1014800011242F933F934F935F936F937F938F9389
:101490009F93AF93BF93EF93FF93E091E122F0917D
:1014A000E222309709F00995FF91EF91BF91AF913A
:1014B0009F918F917F916F915F914F913F912F916C
:1014C0000F900FBE0F901F9018951F920F920FB69E
:1014D0000F9211242F933F934F935F936F937F93BA
:1014E0008F939F93AF93BF93EF93FF93E091DF228E
:1014F000F091E022309709F00995FF91EF91BF91AB
:10150000AF919F918F917F916F915F914F913F919B
:101510002F910F900FBE0F901F9018951F920F9252
:101520000FB60F9211242F933F934F935F936F93B6
:101530007F938F939F93AF93BF93EF93FF93E0912C
:10154000DD22F091DE22309709F00995FF91EF91AD
:10155000BF91AF919F918F917F916F915F914F91CB
:101560003F912F910F900FBE0F901F9018951F92D3
:101570000F920FB60F9211242F933F934F935F93C7
:101580006F937F938F939F93AF93BF93EF93FF934B
:10159000E091DB22F091DC22309709F00995FF9170
:1015A000EF91BF91AF919F918F917F916F915F91DB
:1015B0004F913F912F910F900FBE0F901F90189554
:1015C0001F920F920FB60F9211242F933F934F93B8
:1015D0005F936F937F938F939F93AF93BF93EF939B
:1015E000FF93E091D922F091DA22309709F0099522
:1015F000FF91EF91BF91AF919F918F917F916F91EB
:101600005F914F913F912F910F900FBE0F901F90C0
:1016100018951F920F920FB60F9211242F933F939C
:101620004F935F936F937F938F939F93AF93BF93EA
:10163000EF93FF93E091D722F091D822309709F0F1
:101640000995FF91EF91BF91AF919F918F917F91FC
:101650006F915F914F913F912F910F900FBE0F901F
:101660001F9018951F920F920FB60F9211242F936F
:101670003F934F935F936F937F938F939F93AF931A
:10168000BF93EF93FF93E091D522F091D62230974C
:1016900009F00995FF91EF91BF91AF919F918F91C3
:1016A0007F916F915F914F913F912F910F900FBE5E
:1016B0000F901F9018951F920F920FB60F92112442
:1016C0002F933F934F935F936F937F938F939F934A
:1016D000AF93BF93EF93FF93E091D322F091D42285
:1016E000309709F00995FF91EF91BF91AF919F91CC
:1016F0008F917F916F915F914F913F912F910F90BB
:101700000FBE0F901F9018951F920F920FB60F9259
:1017100011242F933F934F935F936F937F938F93F6
:101720009F93AF93BF93EF93FF93E091D122F091FA
:10173000D222309709F00995FF91EF91BF91AF91B7
:101740009F918F917F916F915F914F913F912F91D9
:101750000F900FBE0F901F9018951F920F920FB60B
:101760000F9211242F933F934F935F936F937F9327
:101770008F939F93AF93BF93EF93FF93E091CF220B
:10178000F091D022309709F00995FF91EF91BF9128
:10179000AF919F918F917F916F915F914F913F9109
:1017A0002F910F900FBE0F901F9018951F920F92C0
:1017B0000FB60F9211242F933F934F935F936F9324
:1017C0007F938F939F93AF93BF93EF93FF93E0919A
:1017D000CD22F091CE22309709F00995FF91EF913B
:1017E000BF91AF919F918F917F916F915F914F9139
:1017F0003F912F910F900FBE0F901F9018951F9241
:101800000F920FB60F9211242F933F934F935F9334
:101810006F937F938F939F93AF93BF93EF93FF93B8
:10182000E091CB22F091CC22309709F00995FF91FD
:10183000EF91BF91AF919F918F917F916F915F9148
:101840004F913F912F910F900FBE0F901F901895C1
:101850001F920F920FB60F9211242F933F934F9325
:101860005F936F937F938F939F93AF93BF93EF9308
:10187000FF93E091C922F091CA22309709F00995AF
:10188000FF91EF91BF91AF919F918F917F916F9158
:101890005F914F913F912F910F900FBE0F901F902E
:1018A00018951F920F920FB60F9211242F933F930A
:1018B0004F935F936F937F938F939F93AF93BF9358
:1018C000EF93FF93E091C722F091C822309709F07F
:1018D0000995FF91EF91BF91AF919F918F917F916A
:1018E0006F915F914F913F912F910F900FBE0F908D
:1018F0001F9018951F920F920FB60F9211242F93DD
:101900003F934F935F936F937F938F939F93AF9387
:10191000BF93EF93FF93E091C522F091C6223097D9
:1019200009F00995FF91EF91BF91AF919F918F9130
:101930007F916F915F914F913F912F910F900FBECB
:101940000F901F9018951F920F920FB60F921124AF
:101950002F933F934F935F936F937F938F939F93B7
:10196000AF93BF93EF93FF93E091C322F091C42212
:10197000309709F00995FF91EF91BF91AF919F9139
:101980008F917F916F915F914F913F912F910F9028
:101990000FBE0F901F9018951F920F920FB60F92C7
:1019A00011242F933F934F935F936F937F938F9364
:1019B0009F93AF93BF93EF93FF93E091C122F09178
:1019C000C222309709F00995FF91EF91BF91AF9135
:1019D0009F918F917F916F915F914F913F912F9147
:1019E0000F900FBE0F901F9018951F920F920FB679
:1019F0000F9211242F933F934F935F936F937F9395
:101A00008F939F93AF93BF93EF93FF93E091BF2288
:101A1000F091C022309709F00995FF91EF91BF91A5
:101A2000AF919F918F917F916F915F914F913F9176
:101A30002F910F900FBE0F901F9018951F920F922D
:101A40000FB60F9211242F933F934F935F936F9391
:101A50007F938F939F93AF93BF93EF93FF93E09107
:101A6000BD22F091BE22309709F00995FF91EF91C8
:101A7000BF91AF919F918F917F916F915F914F91A6
:101A80003F912F910F900FBE0F901F901895CF93FD
:101A9000CFB7F894282F392F211588E0380749F45B
:101AA00061E083E00E94B50464E083E00E94B50435
:101AB00035C0203488E0380749F462E083E00E94B2
:101AC000B50464E083E00E94B50428C0211589E0D4
:101AD000380749F461E084E00E94B50464E084E0E2
:101AE0000E94B5041BC0203489E0380749F462E045
:101AF00084E00E94B50464E084E00E94B5040EC056
:101B000021153A4049F461E085E00E94B50464E0A3
:101B100085E00E94B50402C0CFBF09C08FB7F8941A
:101B2000E0E9F9E290819F5F90838FBFCFBFCF91B3
:101B30000895811528E0920729F46093EF227093AD
:101B4000F0220895803428E0920729F46093E3227C
:101B50007093E4220895811529E0920729F4609397
:101B6000DB227093DC220895803429E0920729F467
:101B70006093CF227093D022089581159A4021F46A
:101B80006093C7227093C8220895CF92DF92EF929C
:101B9000FF920F931F93CF93DF93EC0168017901BC
:101BA000F694E794D794C7944C155D056E057F05B0
:101BB00078F46A017B01CC0CDD1CEE1CFF1CC90112
:101BC000B801A70196010E9407252150310902C0E2
:101BD00020E030E0832F8F708F832E83DF91CF91B1
:101BE0001F910F91FF90EF90DF90CF9008950F938A
:101BF0001F9320E03AE58217930720F0821B930B96
:101C000061E001C060E081304DE2940720F0A9015D
:101C1000481B590BCA01AC01440F551FE52FFF2784
:101C2000EE0FFF1FE252FD4F259135918591949162
:101C30008C01021B130B1403200D311D409F210D3D
:101C40001124311D611102C0832F02C0832F8195A1
:101C50001F910F910895CF92DF92EF92FF928FB76D
:101C6000F894E0E0F2E024A135A18FBF80910C232D
:101C700090910D23A0910E23B0910F23820F931FFB
:101C8000A11DB11D80930C2390930D23A0930E23CF
:101C9000B0930F238FB7F894E8E2F2E02481358106
:101CA0008FBF8091082390910923A0910A23B091BE
:101CB0000B23820F931FA11DB11D809308239093C6
:101CC0000923A0930A23B0930B238FB7F894E0E382
:101CD000F2E0248135818FBF809104239091052308
:101CE000A0910623B0910723820F931FA11DB11D60
:101CF0008093042390930523A0930623B093072396
:101D00002FB7F894E8E3F2E0848195812FBFC0906B
:101D10000023D0900123E0900223F0900323C80E0B
:101D2000D91EE11CF11CC0920023D0920123E09245
:101D30000223F09203238091062081508093062095
:101D40008111BFC020910C2330910D2340910E23AF
:101D500050910F231216130614061506A4F4A5EECF
:101D6000BCE00E945A25DC01CB01072E71E1B5953C
:101D7000A795979587957A95D1F7702D8093202315
:101D80009093212304C010922023109221231092BB
:101D90000C2310920D2310920E2310920F232091EA
:101DA00008233091092340910A2350910B239091ED
:101DB0007E2981E0911101C080E08823E9F081E073
:101DC00012161306140615060CF080E08823A1F005
:101DD000A4E2B8E00E945A25DC01CB01072E71E194
:101DE000B595A795979587957A95D1F7702D80939E
:101DF0001E2390931F2304C010921E2310921F23B2
:101E0000109208231092092310920A2310920B2398
:101E10008091042390910523A0910623B09107237C
:101E2000181619061A061B066CF4689415F8B59571
:101E3000A795979587951694D1F780932223909331
:101E4000232304C0109222231092232310920423F0
:101E50001092052310920623109207231C141D04D0
:101E60001E041F04FCF4ACEFBDE0A70196010E9424
:101E70005A2520912B2330912C2340E050E00E94E2
:101E80002925DA01C901689416F8B595A7959795A3
:101E900087951694D1F78A5A9A4080932423909379
:101EA000252304C01092242310922523109200238E
:101EB00010920123109202231092032380E8809352
:101EC0000620FF90EF90DF90CF9008951092400988
:101ED00080912A23882351F08FB7F894E0E1F1E054
:101EE0009081906890838FBF10922A2380912F2336
:101EF00090913023019680932F239093302308955F
:101F00008FEFE0E0F1E0838380917E29882344F421
:101F100080917E2984FD04C063E977E280E062D885
:101F2000E0E4F9E088E081878081807F85608083BC
:101F3000089560E87FE080E00E94590766E67FE050
:101F400080E499E0F6DD6BE27EE080E092E00E94C2
:101F5000030581E293E1C2D87ED8A8D87894089589
:101F6000CF93DF9381E08093262380E092E00E946C
:101F7000420564E081E490E00E94CC24CEE7D9E2FF
:101F80008FE899E220E939E2A8E4B0E020C0F894B3
:101F9000FC014081411107C0F9014F5F5191552368
:101FA000E1F3411102C0789412C05C91E42FF0E09B
:101FB000E95FFF4D452F417F5081452B4C934C915C
:101FC00041604C93789488954C914E7F4C93488116
:101FD0004423E9F260E081E490E00E94CC2480E0B8
:101FE00092E00E942B0510922623DF91CF91089555
:101FF000809128238823E1F0809188292BEA829F11
:10200000212D1124269530E0E0E0F9E020A731A74A
:10201000869590E082A793A784A795A78181806188
:10202000818381818062818381818064818308953D
:1020300080917E2988236CF510922723809188292E
:10204000882309F452C080917E2985FF11C0E0E009
:10205000F9E081818061818381818F7D81838181AC
:102060008F7B81838091882990E080A791A7089534
:10207000E0E0F9E081818F7E8183818180628183CC
:1020800081818F7B81838091882990E082A793A7AB
:10209000089580917E2986FF0CC081E080932723DC
:1020A000109287278FEF90E0E0E0F9E084A795A7F2
:1020B0000895809189298823C1F010922723E0E0B8
:1020C000F9E081818F7E818381818062818381813A
:1020D0008064818380918929282F2695269530E078
:1020E00022A733A790E084A795A70895809187271A
:1020F000882349F0E0E0F9E081818F7B818381E0F2
:10210000809387270895E0E0F9E0818180648183EE
:1021100010928727089541E150E06EE779E280E26E
:1021200090E00C94D2240895CF93DF9380918A2974
:10213000882339F17091FF2290E0AC01440F551FC4
:10214000480F591FAEE9B7E2E7EAF5E220E030E0D8
:10215000CD91D0E0CC0FDD1FC255DF4D8881998134
:1021600096958795969587958083682F63707617E7
:1021700010F48F5F80832F5F3F4F31962417350710
:1021800038F38091FF228F5F843019F08093FF2213
:1021900002C01092FF22DF91CF910895CF93C82FF4
:1021A000FB01492F50E09A01ABEABAEA0E944B25A5
:1021B0009695879596958795BC01660F771F9B012D
:1021C000280F391F220F331F421B530B423051057A
:1021D000D1F038F44115510559F04130510569F0FD
:1021E00022C043305105A1F044305105B9F01BC065
:1021F0008FEF8083C18312821BC0C095C0838FEF95
:102200008183128215C010828FEF8183C28310C038
:102210001082C095C1838FEF82830AC0C083118270
:102220008FEF828305C08FEF80831182C095C283B8
:10223000CF9108950F931F930E942B080091FB22CA
:102240001091FC222091FD223091FE22601771072F
:102250008207930740F10E942B080E94F5252AE08F
:1022600037ED43EA51E40E9465250E94C925609339
:10227000FB227093FC228093FD229093FE226EE954
:1022800077E280911C2390911D2388DF80911C238D
:1022900090911D23029660E076E00E94F3248093E3
:1022A0001C2390931D231F910F910895EF92FF928D
:1022B0000F931F93CF93DF93C82F0E942B08009199
:1022C000F7221091F8222091F9223091FA2260171A
:1022D000710782079307C8F10E942B080E94F52519
:1022E0002AE037ED43EA51E40E9465250E94C925A2
:1022F0006093F7227093F8228093F9229093FA2248
:1023000000911C2310911D23CC2391F00F2EFEE988
:10231000EF2EF7E2FF2EF02DD0E0B701C8013EDF2F
:10232000085D1F4FDF5F83E0E80EF11CDC13F5CF83
:1023300080911C2390911D23049660E076E00E941A
:10234000F32480931C2390931D23DF91CF911F9141
:102350000F91FF90EF900895AF92BF92CF92DF92CE
:10236000EF92FF920F931F93CF93DF9300D01F92B2
:10237000CDB7DEB7F82E0E942B080091F322109102
:10238000F4222091F5223091F6226017710782071E
:10239000930708F485C00E942B080E94F5252AE0C7
:1023A00037ED43EA51E40E9465250E94C9256093F8
:1023B000F3227093F4228093F5229093F6220091F9
:1023C000F1221091F222A0901C23B0901D23FF2037
:1023D00009F443C00F2EF0EACF2EF7E2DF2EF02DE6
:1023E0008FEF8F0D750148E2E40EF11C98E2899F92
:1023F000E00CF11C1124BE016F5F7F4FC501CEDEE2
:102400000115E4EB1E0708F0145BC801F0DB8158EE
:1024100090E0F60132974981489F9001499F300D25
:102420001124308331964A81489F9001499F300D95
:10243000112430834B81489F9001499F300D112416
:10244000F6013083F8E2AF0EB11C0756174F43E098
:10245000C40ED11CAE14BF0471F680911C23909160
:102460001D23049660E076E00E94F32480931C23F1
:1024700090931D238091F1229091F2229C0124528D
:102480003F4F2115E4EB3E0728F42093F1223093CF
:10249000F22206C08452934B8093F1229093F22251
:1024A0002396CDBFDEBFDF91CF911F910F91FF909B
:1024B000EF90DF90CF90BF90AF9008951F93CF9390
:1024C000DF93E3E9F7E25BE0DF01C52F1D92CA95D8
:1024D000E9F783E090E080939727909398274091C5
:1024E0008A294093992710E51093952727EA35E22A
:1024F00020939A2730939B2780EA98E080939C272B
:1025000090939D27BCE4B093962764E26083AAE091
:10251000A0939427E8E8F7E2EF0119925A95E9F7BA
:1025200050E0BA01660F771F460F571F40938C2764
:1025300050938D2710938A2720938F2730939027CD
:102540008093912790939227B0938B2784E0808388
:10255000A0938927DF91CF911F910895CF93C82F22
:10256000E0E0F1E094819171E9F70E944707CC2304
:1025700031F068E877E280E00E94F20705C063E985
:1025800077E280E00E94F2078FB7F894E0E1F1E093
:102590009081906890838FBFCF91089590917E290C
:1025A0009817A9F0EEE7F9E2908190932D238083AC
:1025B0008081882324F480E28093060603C080E2B1
:1025C0008093050680917E298071C8DF11CD089522
:1025D00090917E29911111C080917F2988235CF40C
:1025E00090912D23992321F080912D23D7CF089509
:1025F0008058D4CF0895D2CF0895882359F0809180
:102600007E298823E9F09091282381E0892780930F
:102610002823089580912823882381F080917E29A2
:10262000803819F0813921F006C081E9B7CF0895CB
:1026300082E9B4CF089580E8B1CF089580E0AECFAD
:1026400008958F929F92AF92BF92CF92DF92EF92B6
:10265000FF920F931F93CF936B017C01E0E8F6E0AC
:10266000C085C3FBCC27C0F980910720C817A1F112
:10267000CC2359F00E942B086093182370931923E0
:1026800080931A2390931B2325C080911823909147
:102690001923A0911A23B0911B23892B8A2B8B2BF2
:1026A000C9F00E942B080091182310911923209142
:1026B0001A2330911B234801590142E0940EA11CBA
:1026C000B11C21E0681579058A059B0508F420E016
:1026D000822F7EDFC09307200E942B0800911823D1
:1026E0001091192320911A2330911B23480159017D
:1026F00048E3940EA11CB11C21E086169706A8069B
:10270000B90608F020E0222341F0CC2331F061E04B
:1027100089E790E00E94CC24FFCF8091162390910E
:10272000172349968093162390931723811594407D
:1027300048F080912723882329F0D8DC10921623B3
:10274000109217238091142390911523499680931A
:102750001423909315238115984060F080912F23C6
:10276000909130238093312390933223109214233D
:1027700010921523C114D10484E7E80685EFF8060A
:1027800088F080917E2988233CF426EEC2162FEF34
:10279000D206E206F20630F061E089E790E00E949E
:1027A000CC24FFCF8091102390911123A09112236C
:1027B000B0911323BC01CD01675E7F4F8F4F9F4FB8
:1027C000609310237093112380931223909313230B
:1027D0000E945608CF911F910F91FF90EF90DF90CC
:1027E000CF90BF90AF909F908F900895E0E0F1E080
:1027F000348120914009317181E090E011F480E052
:1028000090E0822B892B21F081E080932A23089588
:102810008FB7F894E0E1F1E09081906890838FBFEA
:1028200008951F920F920FB60F9211242F933F938A
:102830004F935F936F937F938F939F93AF93BF93C8
:10284000EF93FF93E0E6F6E0808583FF02C0E2D4D9
:1028500001C077D5FF91EF91BF91AF919F918F917B
:102860007F916F915F914F913F912F910F900FBE8C
:102870000F901F90189581E0809329230895CF939E
:10288000DF9380912E2381110EC0CEEFDFEF0E94E7
:10289000241F882329F010922E230E94701F07C046
:1028A00021972097A1F781E080932E2380E0DF918C
:1028B000CF910895CF93DF93E2DF843761F4DFDFB8
:1028C0008C3409F06DC1DBDF853409F06BC1D7DFD3
:1028D000843419F169C1813401F5D1DF843609F0FE
:1028E00065C1CDDF813609F063C10E94701F0E946F
:1028F000701F992787FD909520918A2930E08217D3
:10290000930731F00E94701F80938A2981E026DEB0
:1029100088EB80937E2981E058C1B1DF823279F162
:1029200028F4882369F08131E1F044C1843409F44A
:10293000D4C0853509F42AC1833309F03BC14BC0AB
:1029400063E070E08EEA92E20E94BD2080917E29D1
:1029500090E00E94502081E090E00E94502081E0B1
:1029600034C180917E29803A09F026C163E070E08D
:102970008EE997E20E94CC1F39DF81E026C1C0E2D8
:10298000D3E288819981892F90E00E94502088812C
:1029900099810E945020CEE1D3E288819981892FCC
:1029A00090E00E945020888199810E945020C2E2CC
:1029B000D3E288819981892F90E00E9450208881FC
:1029C00099810E94502080912423909125230E9478
:1029D000502081E0FAC053DF90E08533910508F084
:1029E000EDC0FC01E250FF4F0C94452580917E29FB
:1029F00090E00E94502081E0E8C080917F2990E023
:102A00000E94502081E0E1C08091802990E00E94E6
:102A1000502081E0DAC08091812990E00E9450200E
:102A200081E0D3C08091822990E00E94502081E013
:102A3000CCC08091832990E00E94502081E0C5C0E5
:102A40008091842990E00E94502081E0BEC0809156
:102A5000852990E00E94502081E0B7C080918629AE
:102A600090E00E94502081E0B0C08091872990E0E2
:102A70000E94502081E0A9C08091882990E00E94A6
:102A8000502081E0A2C08091892990E00E945020CE
:102A900081E09BC080918A2990E00E94502081E0D3
:102AA00094C080918B2990E00E94502081E08DC0DD
:102AB00080918C2990E00E94502081E086C0809116
:102AC0008D2990E00E94502081E07FC080918E2966
:102AD00090E00E94502081E078C0D1DED82FCFDE78
:102AE000C82F8D136DC0CBDED82FC9DE8D136AC001
:102AF0004C2F50E04533510508F066C0FA01ED5CFB
:102B0000FE4F0C9445254ADD81E05FC080937F290C
:102B100081E05BC08093802981E057C08093812948
:102B200081E053C08093822981E04FC08093832944
:102B300081E04BC08093842981E047C08093852940
:102B400081E043C08093862981E03FC0809387293C
:102B500081E03BC08093882981E037C08093892938
:102B600081E033C080938A2981E02FC080938B2934
:102B700081E02BC080938C2981E027C080938D2930
:102B800081E023C080938E2981E01FC041E150E0A5
:102B900060E270E08EE799E20E948C2681E015C029
:102BA00080E013C080E011C080E00FC080E00DC065
:102BB00080E00BC080E009C080E007C081E005C074
:102BC00080E003C080E001C080E0DF91CF910895F4
:102BD0000E945F03A0DA72DCACD96FE270E082E0A1
:102BE0000E94E924C82FD0E0DC2FCC276EE270E0F1
:102BF00082E00E94E9249E01282BC90196958795C1
:102C000080932B2390932C2380E092E00E942B054D
:102C10000E94A921FDD2811108C0E0E6F6E080857E
:102C200083FDF8D281E08093690680917F29882313
:102C30003CF48058B3DCCEE7D9E20AE819E202C0DE
:102C4000ADDCF9CF80912923882311F133DE409147
:102C50002E2390E021E030E0442311F020E030E02A
:102C600028233923232B29F087E790E00E94502066
:102C700006C010922E238FEF90E00E9450201092F9
:102C8000292302C00E94701F0E94241F8111FACFC5
:102C90008881803849F018F48823C1F0D3CF813976
:102CA00049F0823969F0CECFF8018081C3DA3CDA8D
:102CB0009DDDC8CFF8018081F9DA36DA97DDC2CF21
:102CC000F801808149DB30DA91DDBCCF49D9BACF38
:102CD000811118C090916024992389F09FB7F894CE
:102CE000E0E9F9E22081215020839FBF08C09FB70F
:102CF000F894E0E9F9E220812F5F20839FBF809361
:102D00006024089590916024992389F3F8CF0F935C
:102D1000E8ECF4E080818F7D808380818F7D8083EB
:102D2000E4E3F4E202E00593109236241092372493
:102D300000E2069300E40693ECE2F4E200E206937C
:102D400000E406931092A1291092A2291092A329BF
:102D50001092A42910929F291092A02910921C244D
:102D60000F9108950F9385E080931C24E5E3F4E22E
:102D700004E00593EDE2F4E204E005930F91089579
:102D80000F9383E080931C241092362410923724F2
:102D9000E4E3F4E202E006930F910895E091A129A3
:102DA000F091A229309709F0099508950F93CF93D8
:102DB000DF9380911C24833019F4F0DFA8DF60C01A
:102DC0008091182490911924C0919F29D091A02915
:102DD000C81BD90B71F520911A2430911B24820F46
:102DE000931F80931A2490931B2420919B29309148
:102DF0009C298217930721F080913323882341F087
:102E000084E080931C24ECE2F4E202E0069338C0F4
:102E1000E091A329F091A429309799F0099588238E
:102E200081F01092182410921924C0919F29D091FA
:102E3000A029C034D10528F010923323C0E4D0E09B
:102E400003C081E080933323C0933624D09337248A
:102E5000809118249091192420919D2930919E29C8
:102E6000280F391F2093382430933924C80FD91FD5
:102E7000C0931824D0931924E4E3F4E202E006930B
:102E8000DF91CF910F910895FC018181877090E0CF
:102E9000FC013197E730F10520F4E859FE4F0C941E
:102EA000452588E090E0089580E290E0089580E470
:102EB00090E0089580E890E0089580E091E0089522
:102EC00080E092E008958FEF93E0089580E190E034
:102ED0000895282F2F7030E0220F331F992787FD88
:102EE00090958827990F881F9927820F931F029723
:102EF0009C01220F331F220F331F220F331F820F1B
:102F0000931F8C549C4D08950F93CF938091CC04C4
:102F100080FF63C081E08093CC04ECE2F4E200E83F
:102F20000693E4E3F4E200E806938093CA04ECE23B
:102F3000F4E200E1069380911C24882329F0835059
:102F4000823008F42BDFE3DE80912E2490912F2431
:102F5000089709F044C088E0E8EDF3E2A5E9B9E29A
:102F600001900D928A95E1F7E8ECF4E080818062AF
:102F700080838081806280830E940222C82F811119
:102F800003C0F0DEC1E02CC08091952988236CF449
:102F900010921A2410921B241092182410921924B3
:102FA00082E080931C2402DF1BC020919B2930917A
:102FB0009C29232B11F4E4DE13C010921A241092E2
:102FC0001B24109218241092192481E080931C2451
:102FD000ECE2F4E202E0069303C0C0E001C0C1E00D
:102FE0008C2FCF910F910895BF92CF92DF92EF92E5
:102FF000FF920F931F93CF93DF93B82E6ADFEC01FC
:103000001B2D111F1127111F8B2D8F70E82EF12CF6
:10301000EE0CFF1CE10EF11CC701880F991F880FF1
:10302000991F880F991F9C01245D3B4D7901C901AF
:103030002BDF6C01112309F45BC0D70116962D918B
:103040003C9117978D819E81280F391F2D833E83D8
:103050008B819C8128173907C9F1FC01E21BF30B16
:103060009F012115F4E03F0740F02FEF33E0C90145
:10307000B6010E94F324281B390B888181FF0AC006
:10308000C901B6010E94F32441E0892B09F040E018
:10309000942F01C090E0888190FB81F98883D7014B
:1030A00016961D921C92179712962D933C93139788
:1030B00029813A818D819E81820F931F14968D9371
:1030C0009C931597F70102E0069398C0888181FFD1
:1030D00087C08D7F8883D70116961D921C92179703
:1030E00012961D921C921397F70102E0069386C078
:1030F000D70112960D911C911397888182FF15C0FC
:10310000E981FA812D813E818B819C81B6010E94EB
:10311000F324B0E4BB9EB00111246C507D4DAC0192
:10312000CF01820F931F0E9483262D813E81200FA5
:10313000311F2D833E83EB81FC81E217F30710F4EE
:10314000ED83FE83D70116968D919C91179780177A
:10315000910709F045C08D819E81E817F90709F4B0
:103160003FC0E81BF90BE115B4E0FB0748F0EFEFB7
:10317000F3E0CF01B6010E94F324E81BF90B06C06F
:10318000CF01B6010E94F324E81BF90BD701129678
:103190001D921C921397EC15FD0578F488818460CC
:1031A0008883B0E4BB9EC00111248C509D4DF70173
:1031B00084839583C682D7820FC029813A818D810D
:1031C0009E81820F931FD70114968D939C93159720
:1031D0001696ED93FC931797F70102E006930EC045
:1031E000888180FF0BC08E7F8883EF81F8853097C0
:1031F00029F06D817E814B2D80E00995DF91CF9183
:103200001F910F91FF90EF90DF90CF90BF900895A6
:1032100080E00895CF93CFB7F89481E059DDEAECD0
:10322000F4E080E4808380E28083E1ECF4E080815C
:1032300081608083A9ECB4E08C9182608C93E8EC8F
:10324000F4E08081806480838C9181608C938081A4
:1032500080688083CFBFCF910895CF93DF93C0E67E
:10326000D0E0188280E30E94CC04E0ECF4E080819E
:103270008064808381E08883CFB7F89410922D24F6
:103280001092352410923D241092452410924D2422
:1032900010925524E4EBF3E280818E7F8083EDEB86
:1032A000F3E280818E7F8083E6ECF3E280818E7F83
:1032B0008083EFECF3E280818E7F80836AE170E0AF
:1032C00082E00E94E9248F3F19F08093FA0403C042
:1032D0008FE18093FA046BE170E082E00E94E924C0
:1032E0008F3F19F08093FB0403C08FE18093FB04B0
:1032F000E0ECF4E08081826080838081806880835C
:103300008081806180838CE294E2868397838081D0
:10331000806280838FEF8093C504E8ECF4E08081C5
:1033200081608083109260248FB7F894E4E9F9E219
:1033300090819F5F90838FBF6DDFCFBFDF91CF9173
:103340000895E1ECF4E080818E7F8083089580E031
:1033500008958093C30408958091C30408958091D3
:103360005C2490915D24089580E090E0089580931E
:103370009D2990939E2960939F297093A029089579
:10338000E82FEF70F0E0EE0FFF1F992787FD909573
:103390008827990F881F9927E80FF91FEE0FFF1F45
:1033A000EE0FFF1FEE0FFF1FE45DFB4D8181807C60
:1033B00009F043C06370613029F010F480E403C069
:1033C00080E801C080EC40385105E1F050F4403213
:1033D0005105A1F04034510599F04031510561F497
:1033E00019C0411592E0590789F04F3F93E0590702
:1033F00079F04115514041F020E00DC022E00BC0B2
:1034000023E009C024E007C025E005C026E003C092
:1034100027E001C021E0118296E09083822B818316
:103420008181807C803C21F481818770873039F0F4
:1034300081818062818381E0089580E0089581E048
:103440000895E82FEF70F0E0EE0FFF1F992787FD3A
:1034500090958827990F881F9927E80FF91FEE0F7D
:10346000FF1FEE0FFF1FEE0FFF1FE45DFB4D81817D
:1034700082FB882780F90895E82FEF70F0E0EE0FC7
:10348000FF1F282F332727FD30952227330F221FB8
:103490003327E20FF31FEE0FFF1FEE0FFF1FEE0F9C
:1034A000FF1FE45DFB4D918192FF0EC091819B7FD8
:1034B00091830FDDFC01808180FF06C08E7F8083B9
:1034C0000780F085E02D099581E008957F928F9225
:1034D0009F92AF92BF92CF92DF92EF92FF920F93A3
:1034E0001F93CF93DF93982E862E5A016901F1DC4A
:1034F0007C01792C771C7724771CC92DCF70D0E004
:10350000CC0FDD1FC70DD11DCC0FDD1FCC0FDD1F74
:10351000CC0FDD1FC45DDB4D8981807C09F44CC07C
:103520008981807C803C19F0898182FD47C08FB7FA
:10353000F894F701908190FF03C08FBF712C3FC0BA
:10354000F7019081916090838FBFF701A182B282D1
:10355000C382D4821582168207831087811006C029
:1035600091E0C114D10419F090E001C091E0F7019D
:10357000808190FB81F98B7F8083772019F01E82F8
:103580001F8215C08981807C803C69F4CE017CDC7F
:10359000BC01C6010E94F324892B29F0F701808128
:1035A0008E7F80830CC01A821B821E821F82892D0F
:1035B0001BDD7724739403C0712C01C0712C872DFF
:1035C000DF91CF911F910F91FF90EF90DF90CF90FF
:1035D000BF90AF909F908F907F900895FF920F9330
:1035E0001F93CF93DF93182FF82EFF1CFF24FF1C8F
:1035F000C82FCF70D0E0CC0FDD1FCF0DD11DCC0F69
:10360000DD1FCC0FDD1FCC0FDD1FC45DDB4D61DC8A
:10361000DC01FE0102E005938C9180FF12C08E7FD9
:103620008C931796ED91FC911897309751F0FF20ED
:1036300019F06E817F8102C06A817B81412F81E018
:103640000995DF91CF911F910F91FF900895CF932E
:10365000C82FC4DFEC2FEF70F0E0EE0FFF1F8C2FB0
:10366000992787FD90958827990F881F9927E80F3C
:10367000F91FEE0FFF1FEE0FFF1FEE0FFF1FE45DA0
:10368000FB4D1182CF9108950F93E82FEF70F0E07A
:10369000EE0FFF1F282F332727FD30952227330FEA
:1036A000221F3327E20FF31FEE0FFF1FEE0FFF1F46
:1036B000EE0FFF1FE45DFB4D91819460918301E06B
:1036C00006938CDF81E00F9108951F920F920FB641
:1036D0000F9211240F932F933F934F935F936F9308
:1036E0007F938F939F93AF93BF93EF93FF938091BB
:1036F000CB0488232CF480E88093CA0454D687C076
:103700008091CB0482FF20C084E08093CA04809122
:10371000342486FF7CC08091CC0481FD78C0F4DB2A
:10372000811175C080911C24813011F429DB6FC098
:10373000843009F06CC0E5E3F4E204E00593EDE2C7
:10374000F4E204E0059363C08091CB0481FF5AC08A
:1037500082E08093CA0480912C2486FF58C0809117
:10376000CC0481FD54C0D0DB811151C080911C2458
:10377000823041F484E080931C24ECE2F4E202E025
:10378000069345C0833009F042C0E5E3F4E204E06B
:103790000593EDE2F4E204E0059339C080E1809303
:1037A000CA0481E01BDF81E819DFD6D51092C3047B
:1037B000EDE2F4E2108296E090932C2483E480837F
:1037C000E5E3F4E2108290933424808388ED93E261
:1037D00080933024909331249ADA19C08091CB04DD
:1037E00086FF06C080E48093CA0480E071DA0FC0CF
:1037F0008091CB0485FF0BC080E28093CA0481E0F6
:1038000067DA05C08091CB0484FFE8CFC7CFFF9172
:10381000EF91BF91AF919F918F917F916F915F9148
:103820004F913F912F910F910F900FBE0F901F90CE
:1038300018951F920F920FB60F9211240F931F939A
:103840002F933F934F935F936F937F938F939F93A8
:10385000AF93BF93CF93DF93EF93FF938091CC040B
:1038600081FD03C051DB8111B9C082E08093CC049B
:103870008091C5048195880FECE2F4E2E81BF10920
:10388000208131812C5234423695279536952795E3
:1038900036952795822F869520FF02C090E801C0BB
:1038A00090E0890FE82FEF70F0E0EE0FFF1F282F58
:1038B000332727FD30952227330F221F3327E20FAE
:1038C000F31FEE0FFF1FEE0FFF1FEE0FFF1FE45D54
:1038D000FB4D908195FF82C000E20693811179C073
:1038E00080911C24843019F459DA11DA77C0C09120
:1038F0002E24D0912F2480919F299091A02900916E
:1039000018241091192498012C0F3D1F821793073A
:1039100018F4EC01C01BD10B80919D2990919E2938
:10392000AE0168ED73E2800F911F0E9483260C0F99
:103930001D1F0093182410931924C034D10569F475
:1039400080911A2490911B24800F911F20919B2914
:1039500030919C298217930788F000939F29109338
:10396000A029E091A329F091A429309729F0099585
:10397000811102C0F7D932C003DA30C080919F298B
:103980009091A02908171907F9F4E091A329F09163
:10399000A429309711F4E6D921C00995811102C0FC
:1039A000E1D91CC020911A2430911B248091182445
:1039B00090911924820F931F80931A2490931B24B3
:1039C0001092182410921924ECE2F4E202E006931B
:1039D00005C0803811F4EAD901C006DBFF91EF91F0
:1039E000DF91CF91BF91AF919F918F917F916F9117
:1039F0005F914F913F912F911F910F910F900FBEAB
:103A00000F901F9018951092762510928225109293
:103A1000832581EA8093782580E28093792510922E
:103A20007A2510927B2510927C2510927D2582E0CC
:103A300090E080937E2590937F25109280251092B0
:103A4000812580E092ECA1E0B0E080938425909302
:103A50008525A0938625B0938725109288251092FE
:103A6000892588E080938A25809176258F5F8093D1
:103A7000762581E008958091762581508093762582
:103A800008958091752581508093752580917525C5
:103A900010927425089580E0089580E00895809143
:103AA00095298823DCF480768032E9F58091962987
:103AB0008132D9F580919B2990919C290797B9F57E
:103AC00084E895E280939D2990939E2987E090E079
:103AD00080939F299093A02981E008958076803279
:103AE00041F580919629803221F0823221F581E0E2
:103AF000089580919B2990919C290797F1F48FE973
:103B00009DE18093A1299093A22984E895E2809376
:103B10009D2990939E2987E090E080939F29909320
:103B2000A02981E0089580E0089580E0089580E074
:103B3000089580E0089580E0089580E00895089554
:103B4000FF920F931F93CF93DF9380916424811191
:103B500093C0FDDB882349F0C0916524D091662491
:103B600003DCC817D90751F487C0C0916524D091F0
:103B70006624F5DBC817D90709F47EC0DFB7F894CF
:103B8000C0916724EC2FF0E0EE0FFF1FE859FB4DCA
:103B900080819181892BF9F4809161249091622434
:103BA00001968093612490936224D1DB811107C038
:103BB00080916124909162248436910550F0C7DB96
:103BC000882349F08091612490916224803293404F
:103BD00010F4DFBF51C010926124109262248091D2
:103BE0006324811106C081E0C11180E080936724C5
:103BF00004C081E0C11180E0C82F81E0809364247B
:103C0000DFBFD0E0FE01EE0FFF1FE859FB4DFF24A0
:103C1000F394808191818034910509F4F12CFF2087
:103C200079F095DB882331F09FDB809365249093B6
:103C300066240AC094DB809365249093662404C0B4
:103C40001092652410926624FE01EE0FFF1FE859C2
:103C5000FB4D20813181AE01002456954795079494
:103C6000569547950794542F402D44595B4D02E4D7
:103C70001EE16F2D81E82ADCDF91CF911F910F911A
:103C8000FF900895811115C02091672481E090E094
:103C9000222311F080E090E0FC01EE0FFF1FE859B5
:103CA000FB4D10821182109263241092642480E0F4
:103CB00047CF089580E044CF08954FB7F8942091FE
:103CC000ED243091EE24E091EF24F0E0EE0FFF1FA1
:103CD000E051FB4D80819181821B930B4FBF089572
:103CE000ECDF21E0892B09F420E0822F08950F9367
:103CF0001F93CF93DF934FB7F8945091EF248091A7
:103D0000EC24811110C02091ED243091EE24C52FB8
:103D1000D0E0FE01EE0FFF1FE051FB4D808191814D
:103D20002817390718F44FBF80E027C01092ED2400
:103D30001092EE2481E0511180E08093EF2481E025
:103D40008093EC244FBF80E0CBDF882319F080E024
:103D50000E943B14AE010024569547950794569552
:103D600047950794542F402D4C505B4D04EF1EE1B6
:103D700020E430E061E082E0A9DBDF91CF911F9188
:103D80000F91089510927525109264241092632467
:103D900010926724109268241092692410926A2469
:103DA00010926B24109265241092662480E0C8DE85
:103DB0001092EC241092EF241092F0241092F1242F
:103DC0001092ED241092EE2480E091DF882359F0C8
:103DD000909175259F5F90937525909175259130F1
:103DE00011F49093742508950F931F93942F8111CC
:103DF00028C08091EF24E1E08111E0E061157105B8
:103E0000A9F4F0E00024F695E7950794F695E79578
:103E10000794FE2FE02DAF014C505B4D04EF1EE1E7
:103E200020E430E061E0892F51DB0BC0F0E0EE0FC1
:103E3000FF1FE051FB4D608371831092EC2480E002
:103E400056DF1F910F91089580E04ACF08951F9388
:103E5000CF93DF9311E080918A25893009F010E03B
:103E600060E070E03FB7F8948091ED249091EE24EB
:103E70002091EF243FBF30E0F901EE0FFF1FE0512A
:103E8000FB4D408151818417950730F08091742556
:103E90008111E8CF90E020C0F9010024F695E79564
:103EA0000794F695E7950794FE2FE02DE80FF91F8C
:103EB000EC50FB4D2081EB01C22B01968093ED2449
:103EC0009093EE2480E013DF112321F07C2F6627EE
:103ED00010E0C8CF8C2F9D2FDF91CF911F910895B7
:103EE00080E0B5CF0895EF92FF920F931F93CF9389
:103EF000DF937B018A018FB7F8942091ED243091F4
:103F0000EE244091EF248FBF50E0FA01EE0FFF1F27
:103F1000E051FB4D808191812817390738F080915D
:103F200074258111E8CF802F912F2FC0821B930B16
:103F3000E8018017910708F4EC01BA010024769596
:103F400067950794769567950794762F602D260FD1
:103F5000371FB9016C507B4DAE01C701D4D680919B
:103F6000ED249091EE248C0F9D1F8093ED2490936F
:103F7000EE24EC0EFD1E0C1B1D0B80E0B8DE0115BF
:103F8000110509F0B8CF80E090E0DF91CF911F914B
:103F90000F91FF90EF900895AB01BC0180E0A3CF9B
:103FA00008955FB7F89420916724E22FF0E0EE0FB8
:103FB000FF1FE859FB4D8081918141E0211140E0D4
:103FC000E42FF0E0EE0FFF1FE859FB4D2081318117
:103FD0008034910589F46091642461110DC0609171
:103FE0006324611109C081E08093632440936724B6
:103FF00020E430E080E090E05FBF280F391F80E8C8
:1040000090E0821B930B0895CCDF21E0892B09F40B
:1040100020E0822F08951F93CF93DF93162FC72F91
:10402000D1E080918A25893009F0D0E080E0ECDF92
:10403000811107C0809174258111F8CF80E090E054
:104040002BC06FB7F8942091672430E0F901EE0F90
:10405000FF1FE859FB4D80819181AC014F5F5F4F9D
:1040600040835183F9010024F695E7950794F6956E
:10407000E7950794FE2FE02D8E0F9F1FFC01E4595A
:10408000FB4D10836FBFDD2329F01C2FCC0FCC0B11
:10409000D0E0CCCF81E090E0DF91CF911F910895E7
:1040A000BC0180E0B8CF08957F928F929F92AF922B
:1040B000BF92CF92DF92EF92FF920F931F93CF9315
:1040C000DF936B018A0180918A25893011F4000FFA
:1040D000111F6894AA24A6F8B12C80E095DF811105
:1040E00007C0809174258111F8CF802F912F37C0A0
:1040F0007FB6F89480906724912CF401EE0FFF1F97
:10410000E859FB4DE080F180C5018E199F09E80157
:104110008017910708F4EC01C40100249695879557
:104120000794969587950794982F802D8E0D9F1D47
:10413000AE01B60184599B4DE6D5F401EE0FFF1F89
:10414000E859FB4DEC0EFD1EE082F1827FBECC0EE5
:10415000DD1E0C1B1D0B09F0C0CF80E090E0DF914D
:10416000CF911F910F91FF90EF90DF90CF90BF9074
:10417000AF909F908F907F900895AB01BC0180E03D
:1041800093CF0895E0919025F09191250190F081D1
:10419000E02D228133812E0F3F1FFC014081E40F6F
:1041A000F11DE217F307A0F481818430A1F086139A
:1041B00006C014C081818430A1F08617A9F08081E7
:1041C000E80FF11DE217F307A8F380E090E00895EF
:1041D00080E090E0089580E090E008958E2F9F2F7A
:1041E000089580E090E008958E2F9F2F089580918C
:1041F00097298F77AEC8089590919225992381F1E0
:10420000E0919025F09191250190F081E02D94812D
:10421000891740F5E0938E25F0938F252281338115
:104220002E0F3F1FE217F307F8F49181943061F4E9
:104230009281981309C09381961306C0E0938E254E
:10424000F0938F2581E008959081E90FF11DE21729
:10425000F30758F3E0938E25F0938F2580E00895BF
:1042600080E0089580E0089580E00895FF920F9324
:104270001F93CF93DF93C82F60E0BEDFF82E882313
:1042800079F1A0919025B0919125EC2FF0E0EE0FFF
:10429000FF1F12962D913C911397E20FF31F00819F
:1042A0001181D8011696ED91FC9117970995682F09
:1042B0008C2FA2DFF82E882399F0C0918E25D09103
:1042C0008F2565E0CE015EDFEC01009719F08A8151
:1042D000BED9F7CFD8011296ED91FC9113970995AD
:1042E0008F2DDF91CF911F910F91FF9008951F9314
:1042F000CF93DF93182F80DF882339F1C0918E256B
:10430000D0918F2565E0CE013DDFEC01009741F0B3
:104310004C815D816B818A8133D88111F3CF15C0C7
:10432000A0919025B0919125812F90E0880F991F41
:104330001296ED91FC911397E80FF91F0190F0810F
:10434000E02D0190F081E02D0995DF91CF911F9133
:1043500008950C942D190895CF9380919225882368
:10436000C1F0E0919025F09191250190F081E02D30
:104370008481882371F0C0E08C2F78DFCF5FE091DB
:104380009025F09191250190F081E02D8481C8174E
:1043900098F31092922581E090E08093932590937A
:1043A0009425CF910895CF9380919225882341F150
:1043B000E0919025F0919125A081B18114968C9186
:1043C0008823F1F0C0E08C2F90E0880F991F0280C5
:1043D000F381E02DE80FF91F0190F081E02D0084BA
:1043E000F185E02D309709F00995CF5FE091902598
:1043F000F0919125A081B18114968C91C81718F382
:10440000CF910895EF92FF920F931F93CF93DF9375
:1044100010929F291092A0291092A1291092A229EE
:104420001092A3291092A4292091952922230CF0FF
:104430009AC280919B2990919C29009709F098C27B
:104440008EC22F7109F0B9C030919629363089F0AB
:10445000383009F4A6C03111B0C0029741F462E0CF
:1044600070E083E995E20E94B71901E0FBC100E02A
:10447000F9C12091972930919829832F992782306B
:104480009105A1F01CF4019739F081C083309105AA
:10449000F1F10F9769F17BC0809122209091232048
:1044A000DC016C9170E00E94B71960C0E09122209D
:1044B000F09123208189281708F06BC0C901992742
:1044C000880F991F880F991FE0912420F0912520D3
:1044D000E80FF91F80819181FC01628173810E9444
:1044E000B719E0919D29F0919E2982E081833EC019
:1044F0008091262090912720009709F44CC0DC0180
:1045000012966D917C9113970E94B7192FC0332793
:104510002130310589F048F02230310509F42DC2EF
:104520002330310509F42CC238C064E070E08AEA17
:1045300090E20E94B7191AC084EA90E225E0382F71
:10454000A8E8B0E2E82FF92F819190E08D939D9338
:104550008E2F831B8217C0F3220F62E0620F6093DD
:10456000862070E086E890E20E94B71980919B292E
:1045700090919C2920919F293091A029821793071F
:1045800070F480939F299093A02901E06BC100E013
:1045900069C100E067C100E065C100E063C101E0FE
:1045A00061C1019741F461E070E082E995E20E9407
:1045B000B71901E057C100E055C1213009F040C0F2
:1045C000309196293A30E1F50197A1F58091922535
:1045D000882391F1C0919929D0919A29E090902552
:1045E000F0909125D701ED91FC918481C81730F5A9
:1045F00060E08C2F01DE082F882309F433C1CE013F
:104600009927880F991FD7011296ED91FC91139766
:10461000E80FF91F0190F081E02D0680F781E02D71
:10462000099580938D2561E070E08DE895E20E9408
:10463000B71918C100E016C100E014C100E012C1B2
:10464000223009F011C120919629211106C102974B
:1046500089F4809199290E94211A90E080938B25FA
:1046600090938C2562E070E08BE895E20E94B71988
:1046700001E0F8C000E0F6C02F7109F091C0809110
:104680009629833009F4EBC018F48130B1F088C06A
:10469000853019F0893061F183C080919B29909118
:1046A0009C29892B41F487EF90E28093A129909374
:1046B000A22901E0D7C000E0D5C080919B2990914C
:1046C0009C29892B89F480919729909198290197A9
:1046D00069F480919325909194258D7F8093932503
:1046E0009093942501E0BEC000E0BCC000E0BAC0D9
:1046F00080919B2990919C29892B09F047C00E94A9
:10470000AC19882309F444C0209197293091982945
:104710003327E0912220F0912320818990E08217B5
:104720009307C0F119DE8091972990919829809381
:104730009225882389F199278150904C880F991FE1
:10474000880F991FE0912420F0912520E80FF91F90
:10475000E0939025F09391250190F081E02D8481E4
:104760008823E1F0C0E060E08C2FC1DD082F8823B2
:1047700009F478C0CF5FE0919025F09191250190E8
:10478000F081E02D8481C81770F36CC000E06AC02E
:1047900000E068C000E066C001E064C001E062C003
:1047A000213009F5809196298B30E9F480919B297D
:1047B00090919C29892B99F480919225882389F0E6
:1047C000C0919929D09197298C2F50DD082F8823EB
:1047D00009F448C06D2F8C2F8ADD082F43C000E0FC
:1047E00041C000E03FC0223009F03EC080919629D0
:1047F000813019F08330B9F034C080919B299091B9
:104800009C29892B61F48091972990919829892B73
:1048100041F4809199290E943C1A082F23C000E09E
:1048200021C000E01FC080919B2990919C29892B79
:1048300081F48091972990919829892B61F4C9E995
:10484000D9E288810E94EE1A88810E94441B082FB9
:1048500009C000E007C000E005C000E003C000E0C0
:1048600001C000E0011190C0809195298F718130C5
:10487000C1F5809192258823A1F1C0919929D09109
:104880009A290091902510919125D801ED91FC91E4
:104890008481C81730F560E08C2FAEDC882309F1E5
:1048A000CE019927880F991FD8011296ED91FC919E
:1048B0001397E80FF91F00811181D8011696ED9129
:1048C000FC9117970995682F8C2F96DC882349F067
:1048D000D8011496ED91FC9115970995082F811137
:1048E00053C0809195298F718230D9F5809192259E
:1048F000882389F1E0919025F0919125A081B181E3
:1049000014968C91882349F110E0212F30E0220F7A
:10491000331F0280F381E02DE20FF31FC081D181AC
:10492000EE81FF810995682F812F66DC082F88238F
:1049300059F1EC81FD810995082F811125C01F5F78
:10494000E0919025F0919125A081B18114968C91F0
:104950001817D8F219C000E017C000E015C000E039
:1049600013C000E011C0822F807609F07DCF84CE85
:10497000322F307609F078CF64CD8AE990E202C018
:1049800081EB92E229E0DBCD802FDF91CF911F9167
:104990000F91FF90EF9008951BBEFC0128ED24BFFE
:1049A00060830895CF93DF939B01E0ECF1E067858E
:1049B0006623ECF3CCECD1E0688168606883BC01CD
:1049C000705FC901A0D18881877F8883DF91CF91F3
:1049D00008954091CA01E62FF72F8093CA01849170
:1049E0004093CA010895AA1BBB1B51E107C0AA1F2F
:1049F000BB1FA617B70710F0A61BB70B881F991F80
:104A00005A95A9F780959095BC01CD010895A1E232
:104A10001A2EAA1BBB1BFD010DC0AA1FBB1FEE1F38
:104A2000FF1FA217B307E407F50720F0A21BB30B83
:104A3000E40BF50B661F771F881F991F1A9469F7FF
:104A400060957095809590959B01AC01BD01CF015B
:104A50000895052E97FB16F400940FD057FD05D04E
:104A6000D6DF07FC02D046F408C05095409530953B
:104A700021953F4F4F4F5F4F0895909580957095CA
:104A800061957F4F8F4F9F4F0895EE0FFF1F059049
:104A9000F491E02D0994A29FB001B39FC001A39FA0
:104AA000700D811D1124911DB29F700D811D112467
:104AB000911D0895F0DFA59F900DB49F900DA49FC8
:104AC000800D911D112408955058BB27AA270ED0A0
:104AD000E0C0D1D030F0D6D020F031F49F3F11F4B7
:104AE0001EF4C6C00EF4E095E7FBBCC0E92FE2D08F
:104AF00080F3BA17620773078407950718F071F4FB
:104B00009EF5FAC00EF4E0950B2EBA2FA02D0B01E6
:104B1000B90190010C01CA01A0011124FF27591B02
:104B200099F0593F50F4503E68F11A16F040A22F08
:104B3000232F342F4427585FF3CF46953795279579
:104B4000A795F0405395C9F77EF41F16BA0B620B78
:104B5000730B840BBAF09150A1F0FF0FBB1F661FBF
:104B6000771F881FC2F70EC0BA0F621F731F841F02
:104B700048F4879577956795B795F7959E3F08F028
:104B8000B3CF9395880F08F09927EE0F97958795E7
:104B9000089598D088F09F5790F0B92F9927B75172
:104BA000A0F0D1F0660F771F881F991F1AF0BA95F1
:104BB000C9F712C0B13081F09FD0B1E008959CC018
:104BC000672F782F8827B85F39F0B93FCCF38695E7
:104BD00077956795B395D9F73EF490958095709544
:104BE00061957F4F8F4F9F4F0895E89409C097FBC1
:104BF0003EF490958095709561957F4F8F4F9F4FB4
:104C00009923A9F0F92F96E9BB279395F6958795F7
:104C100077956795B795F111F8CFFAF4BB0F11F4BA
:104C200060FF1BC06F5F7F4F8F4F9F4F16C0882361
:104C300011F096E911C0772321F09EE8872F762F97
:104C400005C0662371F096E8862F70E060E02AF0D8
:104C50009A95660F771F881FDAF7880F96958795C4
:104C600097F9089597F99F6780E870E060E00895EC
:104C70009FEF80EC089500240A9416161706180674
:104C80000906089500240A94121613061406050650
:104C90000895092E0394000C11F4882352F0BB0FE1
:104CA00040F4BF2B11F460FF04C06F5F7F4F8F4F44
:104CB0009F4F089557FD9058440F551F59F05F3F7F
:104CC00071F04795880F97FB991F61F09F3F79F02E
:104CD00087950895121613061406551FF2CF4695B0
:104CE000F1DF08C0161617061806991FF1CF869532
:104CF0007105610508940895E894BB276627772716
:104D0000CB0197F90895FB01DC0102C001900D92DF
:104D100041505040D8F70895DC01CB0102C02D91DD
:104D200005D041505040D8F70895262FE0ECF1E02F
:104D3000378537FDFDCF3485377F3487378531FFA1
:104D400009C036E3328738ED34BF31E03387378529
:104D500037FDFDCF33E33287808391831282248332
:104D600025E3228728ED31E024BF3387019608959B
:044D7000F894FFCFE5
:104D740040420F00C0008001000E060C0400C21E59
:104D8400411D4B1D4D1D5A1E031D3B1D4F1D4D1D29
:104D9400000074202820000030202C2018200E2031
:104DA40009024300020100C03209040000010202AA
:104DB4000100052400100104240202052406000158
:104DC40005240103010705820340001009040100C2
:104DD400020A0000000705810240000007050202E4
:104DE400400000001201000202000040EB03BC3A44
:104DF40000010102030100030000000000000000A4
:104E04000000000000000000000074696E794C6925
:104E1400676874004D4B26464600040309040000ED
:104E2400000000000000000000000000000001007D
:104E34000100010001000100010002000200020063
:104E4400030003000300040004000500050006003D
:104E54000600070007000800090009000A000B000B
:104E64000B000C000D000E000F00100010001100CC
:104E740012001300140015001700180019001A007E
:104E84001B001C001E001F00200022002300240021
:104E94002600270029002A002C002E002F003100B4
:104EA40033003400360038003A003C003D003F0037
:104EB400410043004500470049004C004E005000AB
:104EC40052005400570059005B005E00600062000D
:104ED400650067006A006D006F007200750077005E
:104EE4007A007D0080008200850088008B008E009F
:104EF4009100940097009B009E00A100A400A700CD
:104F0400AB00AE00B100B500B800BC00BF00C300E8
:104F1400C600CA00CE00D100D500D900DD00E100F2
:104F2400E400E800EC00F000F400F800FC000101EB
:104F3400050109010D01120116011A011F012301C6
:104F440027012C01300135013A013E01430148019A
:104F54004D01510156015B01600165016A016F0158
:104F6400740179017E01830189018E019301980105
:104F74009E01A301A901AE01B401B901BF01C4019D
:104F8400CA01D001D601DB01E101E701ED01F30122
:104F9400F901FF0105020B02110217021E0224028D
:104FA4002A02310237023D0244024A0251025702E8
:104FB4005E0265026B0272027902800287028D0230
:104FC40094029B02A202A902B102B802BF02C60265
:104FD400CD02D502DC02E302EB02F202FA02010383
:104FE400090310031803200327032F0337033F0388
:104FF40047034F0357035F0367036F0377037F037D
:10500400870390039803A003A903B103BA03C2035F
:10501400CB03D303DC03E503EB03F403FC034C45AC
:0C5024004474696E794C69676874000080
:00000001FF
